:100000000C9446020C948D020C948D020C948D027B
:100010000C948D020C948D020C948D020C948D0224
:100020000C948D020C948D020C9478230C944A2429
:100030000C948D020C948D020C948D020C948D0204
:100040000C948D020C94D61D0C948D020C948D0290
:100050000C948D020C944B190C948D020C948D020F
:100060000C948D020C948D020C948D020C948D02D4
:100070000C948D020C948D020C948D020C948D02C4
:100080000C948D020C948D020C948D020C948D02B4
:100090000C94B00A0C948D020C948D020C948D0279
:1000A0000C948D020C948D020C948D02B504B7044F
:1000B000C204B904BB04BD04BF04C104C404C60423
:1000C000C804D304CA04CC04CE04D004D204D5049A
:1000D000630E630E950E950ED30EF10E7910791006
:1000E000330F7910D60FD60F4810511079107210B7
:1000F000E30FE30FE30FE30FE30FE30FE30FE30F70
:10010000E30FE30FE30FE30FE30FE30FE30FE30F5F
:10011000F40F0210091010101A100A110A111C1104
:100120001C1113111C111C111C110A110A11181198
:100130001C111C111811B51CAB1CC31C0D1D0F1D6F
:100140000F1D0D1D0F1D0F1DE41C0F1DEE1CF81CB7
:100150000F1D0F1D0F1D0F1D0D1D0F1D0F1D0D1D43
:100160000F1DD11C0F1DA11C081D081D081D081DF9
:10017000081D081D081D081D081D0A1D0F1DB51CA2
:10018000A81C0F1D0F1D0F1D0F1D0F1D0F1D0F1D77
:100190000F1D0F1D0F1D0A1D0F1D0F1D0D1D0F1D06
:1001A000061D061D061D061D061D061D061D061D37
:1001B000061D0A1DB724DE24D625DE24D6252A25D1
:1001C0004D25D625A425B32529001E001F0020009B
:1001D000210022002B0014001A000800150017004F
:1001E000390004001600070009000A00E1001D00A4
:1001F0001B00060019000500E000E300E2000151C9
:100200002C002C00F05C2700260025002400230091
:100210002A00130012000C0018001C0028003300F4
:100220000F000E000D000B00E50034003700360013
:10023000100011004F005100520050002C002C0003
:10024000F25C3A003B003C003D003E00BE5C4400D6
:100250004500680069006A00BD5C6B006C006D00C1
:100260006E006F00010070007100720073000000EA
:100270000100010001000100000000004C054300E6
:100280004200410040003F004C0030002F0031028E
:1002900038023502F15C30022F0235002D002E02AB
:1002A0000100AE00AB00AC002D022E000000A80043
:1002B000A900AA00000000000000000000000000EB
:1002C000000000010204060A0F17202C3A4A5D7153
:1002D000879DB3C7DAE9F5FCFFFCF5E9DAC7B39D02
:1002E00087715D4A3A2C20170F0A060402010000AC
:1002F00000000000000000000403300000002A039A
:1003000054006800650020004E00790071007500FF
:1003100069007300740020004B00650079006200E2
:100320006F0061007200640000000E034B00650066
:100330006500620069006F000000040309040902FF
:100340003B00020100A0FA090400000103010100C2
:100350000921110100012240000705810308000A5C
:10036000090401000103000000092111010001221C
:10037000C0000705820320000A12011001000000DE
:100380000810CB561100020102030105010902A168
:100390000185020901A1000509190129051500259A
:1003A000019505750181029501750381010501091A
:1003B0003009311581257F950275088106093815A8
:1003C00081257F950175088106050C0A3802158183
:1003D000257F950175088106C0C005010980A1012E
:1003E00085031601002603001A81002A8300751078
:1003F00095018100C0050C0901A1018504160100C9
:10040000269C021A01002A9C02751095018100C0E9
:1004100005010906A1018505050719E029E7150071
:100420002501950875018102050819012905950521
:10043000750191029501750391010507190029EFD6
:100440001500250195F075018102C005010906A17D
:1004500001050719E029E7150025019508750181B7
:100460000295017508810105081901290595057591
:100470000191029501750391010507190029FF15E6
:100480000026FF00950675088100C00011241FBEDC
:10049000CFEFDAE0DEBFCDBF04B603FE27C0809108
:1004A000580290915902A0915A02B0915B02873094
:1004B000904BA740B04BD1F41092580210925902C1
:1004C00010925A0210925B0214BE84B7877F84BFD9
:1004D0000FB6F894A89580916000886180936000C1
:1004E000109260000FBEE0E0F8E3099511E0A0E093
:1004F000B1E0E0E9FDE402C005900D92AE32B10733
:10050000D9F722E0AEE2B1E001C01D92A835B207F2
:10051000E1F70E94A0200C94C6260C9400000C94D5
:100520004B08CF93FB01803F2CE5920759F148F42B
:10053000813E910509F449C0853E910509F445C005
:1005400047C0813F2CE5920721F0823F9C4551F046
:100550003FC0C281CC23E9F18BE198E00E9469039E
:1005600084E00DC0C281CC23A1F10E9415190E9424
:100570002119883E934010F486EA01C085EA0E9462
:10058000180E12C0C281CC23A9F00E941D178272DE
:1005900080932E01C0912F01CC2341F082E20E9472
:1005A000261781E30E94860CC0E013C088E30E94F6
:1005B000860C0FC088E30E94B00D81E30E94B00D4D
:1005C00080912E010E94201704C0828180932F0108
:1005D000C1E08C2FCF9108950F931F93CF93DF939A
:1005E0009C013A9521153F4148F5EB018C0190FFA4
:1005F00003C080EEFB01099511FF03C081EEFE01EF
:10060000099512FF03C082EEFE01099513FF03C096
:1006100083EEFE0109950115104180F084EEFE0184
:10062000099585EEFE01099586EEFE01099587EE96
:10063000FE01DF91CF911F910F910994DF91CF912E
:100640001F910F910895877091E001C0990F8A95CD
:10065000EAF7892F0E9430170C946B170C94230330
:10066000877091E001C0990F8A95EAF7892F0E945F
:1006700036170C946B170C943003CF93DF93EC0177
:10068000805E9109089710F0209719F463E273E0F7
:1006900002C06EE273E0CE010E94EC028C2FDF916B
:1006A000CF910C94860CCF93DF93EC010E94B00D98
:1006B000CE01805E9109089710F0209719F460E34D
:1006C00073E002C06BE373E0CE01DF91CF910C9435
:1006D000EC02CF93DF93EC010E943D03CE01DF914A
:1006E000CF910C94530381E008950C9491020C94E3
:1006F0004908CF92DF92EF92FF92863030F4811159
:1007000005C0909180009F7D04C085E0909180009D
:10071000906290938000282F30E0AFEFBFEF0E94EF
:100720006A2625E030E040E050E00E944226C90100
:100730002C3764E1360728F469E070E00E941A263D
:1007400029C0DA01C9018A50974DAF4FBF4F6627C4
:10075000782F892F9A2F25EF38E241E050E00E9450
:10076000422669017A01CA01B9010E940A269B0149
:10077000AC01C701B6010E940A26BB27A92F982FFA
:10078000872F009721E0A207B10511F0BC0102C03C
:100790006FEF7FEF70938B0060938A00FF90EF9074
:1007A000DF90CF900895269A2E9882E28093800061
:1007B00089E1809381008FEF9FEF90938700809372
:1007C00086000C94151E0E94CE17811102C00E9453
:1007D00051180E94D3030C948F0208950C94ED03DA
:1007E0000C94EE0308950E94F8100E94F2032FEF7C
:1007F00084E39CE0215080409040E1F700C000007D
:1008000087E797E790930108809300080C9471198B
:10081000FF920F931F93CF93DF938C01FC01C08154
:10082000D18180916001811113C08281882349F0B8
:10083000CE010E949C16F82E682FCE010E9443160E
:1008400004C0CE010E946F16F82EBE018F2D04C089
:10085000CE010E949C16BE010E948905EC01B801E0
:100860000E947503882309F449C1C73DFCE5DF07F1
:1008700009F4ABC0B0F4C5318CE5D80768F4C230D8
:10088000ECE5DE0708F04FC0C115FCE5DF0701F11C
:10089000C130DC4529F125C1C631DC4509F4FAC077
:1008A00020C1CC3DECE5DE0771F150F4C83D2CE5EC
:1008B000D20709F4ADC0C93DDC4509F4D0C011C16F
:1008C000CD3DECE5DE0731F1CE3DDC45A1F009C1BF
:1008D000F8018281882309F411C10E94F3030EC13B
:1008E000F8018281882309F409C18091EE018160B9
:1008F0008093EE0103C1F8018281882309F4FEC0D0
:100900000E945118FBC0F8018281882309F4F6C0C7
:1009100080E006C0F8018281882309F4EFC082E0FC
:100920000E943F21EBC0F8018281882309F4DEC0D8
:100930000E94CE17811102C00E9451180E94E11737
:1009400090E09093490280934802FE01E350FC45F9
:10095000E231F10530F4EA5AFF4F809148020C94DD
:10096000642680914802816027C0826025C084602F
:1009700023C0806121C080621FC080641DC0806868
:100980001BC08460886018C08E7F16C08D7F14C025
:100990008B7F12C08F7E10C08F7D0EC08F7B0CC0EE
:1009A0008F770AC08B7F877F07C087FB222720F9BC
:1009B00091E0922790FB87F980934802809148024A
:1009C0000E94E5170E94F81099C0F80182818823DF
:1009D00051F0109235010E941519909332018093C5
:1009E000310182E022C08091350181110FC08091D8
:1009F0003101909132010E942119883E934030F4D8
:100A000086E20E94860C86E20E94B00D82E024C03D
:100A1000F8018281882361F0109236010E94151935
:100A2000909334018093330180E20E94200E66C0CF
:100A30008091360181110FC0809133019091340172
:100A40000E942119883E934030F487E20E94860C70
:100A500087E20E94B00D80E20E94270E4FC0F8018D
:100A600082818111D9CF809136018111F4CF80919B
:100A70003301909134010E942119883E934058F728
:100A800080E20E94270E88E20E94860C88E20E9483
:100A9000B00D34C00E941D17982FF801828120915B
:100AA000010130910201882379F09A7A81E009F4FA
:100AB00080E080933001911102C069E201C065E3DA
:100AC000C9010E94B9180AC080913001811102C089
:100AD00069E201C065E3C9010E94C4180E946B1756
:100AE0000DC081E08093350180933601C801DF910C
:100AF000CF911F910F91FF900C94730380E0DF91D1
:100B0000CF911F910F91FF90089580E090E008959C
:100B100008952CE3829FC0011124FC0126E0729FFE
:100B2000E00DF11D1124E60FF11DEE0FFF1FE8533C
:100B3000FE4F859194910895880F991FFC01E85408
:100B4000FD4F859194910895CF93DF930E9489057D
:100B50000E94A707EC01811521E5920708F042C029
:100B6000811540E5940708F032C1883E910500F5F3
:100B7000803E910508F0E7C1883A910570F4853A06
:100B8000910508F0A7C08130910509F4DCC108F493
:100B90008DC1049708F0D7C189C18F3B910508F436
:100BA000A4C0803C910508F481C1805C9109FEC01D
:100BB000C11580E3D80780F4C11520E2D20708F000
:100BC000F3C0C03FD10508F471C1CF3FD10511F08A
:100BD00008F0B9C1D065B7C1C11540E4D40708F029
:100BE000F3C0E8C0C11589E5D80760F5C11528E54F
:100BF000D20708F038C1C11544E5D40778F4C1150F
:100C000083E5D80708F014C1C11522E5D20708F022
:100C1000F9C0DC2FCC27C16FD06A95C1C11545E55D
:100C2000D40708F41BC1C11586E5D80708F03EC1FA
:100C30008C2F0E9423088F71C82FD0E0DC2FCC2787
:100C4000D06281C1CD3B2CE5D20709F41DC1F0F47F
:100C5000CB3B8CE5D80709F40BC108F00FC1C115D7
:100C60004AE5D40708F022C18C2F8F700E94230818
:100C700094E0D695C7959A95E1F7CF70D0E0DC2F38
:100C8000CC27D06A8F70806EC82B5DC1C03C8CE5CC
:100C9000D80709F405C178F4CE3B4CE5D40709F434
:100CA000F9C0CF3BDC4509F001C181E080934A01E6
:100CB000C0E0D2ED48C1CE0190568115904208F0B7
:100CC000F5C08D2F8F710E942308DD27D0628F71B0
:100CD000D82B39C1853A910509F4EBC0863A9105C4
:100CE00009F0EAC0C2E8D0E42EC1883A910509F4BF
:100CF000E6C0893A910509F4E5C08A3A910509F4FC
:100D0000E4C08B3A910509F4E3C08C3A910509F4EB
:100D1000E2C08B3B910509F4E1C08C3B910509F4DD
:100D2000E0C08D3A910509F4DFC0803B910509F4DC
:100D3000DEC08E3A910509F4DDC08F3A910509F4C1
:100D4000DCC0813B910509F4DBC0823B910509F4CD
:100D5000DAC0833B910509F4D9C0843B910509F4BD
:100D6000D8C0853B910509F4D7C0863B910509F4AD
:100D7000D6C0873B910509F4D5C0883B910509F49D
:100D8000D4C0893B910509F4D3C08D3B910509F48A
:100D9000D2C08E3B910509F4D1C08A3B910509F47C
:100DA000D0C0C0E0D4E4CFC0CE019F700E949C05AB
:100DB000EC01C9C0CE019927D3FF03C0EC01D86C68
:100DC000C2C0EC01D06CBFC0DF70D06ABCC074E0A0
:100DD000969587957A95E1F783709C2F937021E023
:100DE00030E002C0220F331F9A95E2F73C68382B9F
:100DF000CF70C695C69540E2C49FE0011124C22B76
:100E0000D32BA1C0CE018370992721E030E002C02E
:100E1000220F331F8A95E2F78C2F8695869540E244
:100E2000849FC0011124E901C82BD92BDC688BC039
:100E3000CE018370992721E030E002C0220F331FDA
:100E40008A95E2F78C2F8695869540E2849FC001B3
:100E50001124E901C82BD92BDA6875C0DC2FCC2707
:100E6000C46FD06A70C0DC2FCC27C06FD06A6BC053
:100E700081E080934A01C0E0D4ED65C081E08093B9
:100E80004A01C0E0D5ED5FC081E080934A01C0E037
:100E9000D1ED59C081E080934A01C0E0D0ED53C04C
:100EA00081E080934A01C0E0D3ED4DC0C0E0D0E0C6
:100EB0004AC0C1E8D0E447C0C3E8D0E444C0C2EEB1
:100EC000D4E441C0C9EED4E43EC0CAEED4E43BC091
:100ED000C5EBD4E438C0C6EBD4E435C0C3EBD4E4EE
:100EE00032C0C4EBD4E42FC0C7EBD4E42CC0CCECAC
:100EF000D4E429C0CDECD4E426C0C3E8D5E423C0B3
:100F0000CAE8D5E420C0C2E9D5E41DC0C4E9D5E4EF
:100F10001AC0C1E2D6E417C0C3E2D6E414C0C4E2EA
:100F2000D6E411C0C5E2D6E40EC0C6E2D6E40BC0DA
:100F3000C7E2D6E408C0CFE6D4E405C0C0E7D4E4F5
:100F400002C0CAE2D6E4CE01DF91CF910895823883
:100F5000910549F1B0F48133910509F459C048F481
:100F60008932910509F44FC08A32910509F455C0C0
:100F700008958533910509F441C08933910599F0AD
:100F80000895833E910531F138F4803E910591F04A
:100F9000823E9105A9F00895863E910501F1873EB4
:100FA000910539F108952091480220FD3BC021FDB3
:100FB00039C008958091480280FF34C089E341C060
:100FC0008091480282FF30C08091480284FD2EC08B
:100FD00083EE37C08091480282FD26C0F5CF809114
:100FE000480283FF25C08091480284FD1FC087EE20
:100FF00028C08091480283FD1BC0F5CF8091480234
:1010000085FD18C019C08091480285FD15C012C029
:101010008091480286FD12C013C08091480286FD6F
:101020000FC00CC080EE0DC082EE0BC080E009C086
:1010300086EE07C089E205C085E303C08AE201C0ED
:1010400081E390E008959091480292FF0DC0282F0F
:101050002871283019F4877F846006C0282F2471F6
:10106000243011F48B7F886093FF0DC0282F2871E6
:10107000283119F4877E846106C0282F2471243119
:1010800011F48B7E886194FD877E089508950C94F9
:1010900046080C9447080C944608E82FF0E0E35CFF
:1010A000FE4F808108950895CF93DF938091EE01E4
:1010B000836088608093EE0180910001809100013F
:1010C000811102C095E001C090E09093210285E07B
:1010D000891B80932002AAE1B1E04FE151E061E079
:1010E00070E08D91E82FE295EF70F0E021A18F7014
:1010F000EB0102C0CC0FDD1F8A95E2F7CE019C2FD9
:101100009095922391A392A1892B82A34A175B0702
:1011100041F7A4E1B1E04AE151E061E070E08D9176
:10112000E82FE295EF70F0E021A18F70EB0102C093
:10113000CC0FDD1F8A95E2F7CE019C2F909592236C
:1011400091A392A1892B82A34A175B0741F7EDE394
:10115000F1E087E491E011928E179F07E1F785E0B7
:101160000E947A09DF91CF910C94E3036F927F92F2
:101170008F929F92AF92BF92CF92DF92EF92FF92A7
:101180000F931F93CF93DF932AE1622E21E0722EFB
:10119000A8E3B1E03DE3C32E31E0D32E20E001E02F
:1011A00010E05D019C901C92E30189913E01E82FC3
:1011B000E295EF70F0E031A18F70A80102C0440FFA
:1011C000551F8A95E2F7CA01342B31A342A1382F6B
:1011D0003095432342A350EA5A95F1F794E1E92E62
:1011E00091E0F92E40E050E0E70189907E01682D02
:1011F00062956F7070E0EB0168A170E0D82DDF7030
:1012000002C075956795DA95E2F760FD07C0B801F1
:10121000042E01C0660F0A94EAF702C060E070E095
:101220007C91672B6C934F5F5F4F46305105E1F621
:1012300091A1392331A392A1892B82A3119681E038
:10124000F5019081991101C080E0282BCA16DB06B8
:1012500009F0A7CF6091210270E0635C7E4F45E00A
:1012600088E391E00E947B0981E0DF91CF911F919B
:101270000F91FF90EF90DF90CF90BF90AF909F9035
:101280008F907F906F900895CF930E94B608C82FDB
:101290000E94B109882311F18091200290E0835CC3
:1012A0009E4F0E94E009811114C0809137018F5F29
:1012B00080933701863078F0E0912002F0E0E35C23
:1012C000FE4F80E090E01192019685309105D9F7AC
:1012D00002C0109237010E94770309C08091210259
:1012E00090E0835C9E4F0E942B0A0E9446088C2F40
:1012F000CF9108950895FF920F931F93CF93DF939B
:101300008C01F62ED72FC42F222349F081E0809341
:1013100049010E94151990934801809347018091DB
:1013200049018823C1F080914701909148010E94B2
:101330002119069780F0EF2DFD2FD8014C2F50E09A
:10134000CD01801B910B841795071CF48D9181931F
:10135000F7CF10924901DF91CF911F910F91FF902C
:10136000089580914C01811112C08091D800806154
:101370008093D8008AE18A95F1F700C08091D90066
:1013800080FD02C082E001C081E080934C0181E0D9
:1013900090914C01913009F080E008950C94B109CE
:1013A0000E94CE09809300010E94B109882331F088
:1013B0000E94440A81E080934A0108950C94460AF1
:1013C000EF92FF920F931F93CF93DF93EC018091E5
:1013D0004A01882379F082E30E94580A811131C0C2
:1013E0000E948B0A81112DC00E94D31E0E948B0A7D
:1013F00010924A0182E30E94580A811122C086E0BD
:101400000E948B0A81111DC083E30E94580A81113A
:1014100018C08E017E0184E0E80EF11C81E090E0AE
:101420000E949A0AF80181938F01EE16FF06B1F728
:1014300080E090E00E949A0A8C830E947F0A81E0FB
:1014400003C00E94A70A80E0DF91CF911F910F9106
:10145000FF90EF90089526E030E0FC014191CF012C
:10146000F901EE5DFD4F40832F5F3F4F2B3031057B
:10147000A1F780914A01882331F0809122020E94D5
:10148000790310924A0108950C94520A82E30C9455
:10149000AA0A89EC90E02091BC0027FD02C00197C8
:1014A000D1F708951092B90088E48093B8000895A8
:1014B000CF93C82F84EA8093BC000E94490A809190
:1014C000B900887F883039F08091B900887F8031F9
:1014D00011F081E012C0C093BB0084E88093BC008F
:1014E0000E94490A8091B900887F883129F0809153
:1014F000B900887F803469F780E0CF91089584E94E
:101500008093BC0089EC90E02091BC0024FD02C0D7
:101510000197D1F708958093BB0084E88093BC00C5
:101520000E94490A9091B900987F81E0983209F4AD
:1015300080E0089526E0880F991F2A95E1F78468D6
:101540008093BC000E94490A8091BB0008951092CC
:10155000BC0008958093BA0085EC8093BC00089588
:101560001F920F920FB60F9211248F939F93EF93B8
:10157000FF938091B900887F803879F048F4882300
:1015800009F449C0803609F048C010924D0145C0A9
:10159000883A81F1883B71F140C080914D01811101
:1015A00011C08091BB0080934E0180914E0180322A
:1015B00020F010924E0180E001C081E091E0909314
:1015C0004D012CC0E0914E01F0E08091BB00EE5D3A
:1015D000FD4F808380914E01811104C081E0809392
:1015E0004A0110C080914E01843061F481E0809303
:1015F0004B0108C0E0914E01F0E0EE5DFD4F8081AF
:101600008093BB0080914E0190E001968F719927E5
:1016100080934E0102C01092BC0081E09091BC000A
:101620008295880F880F807C9568892B8093BC00F9
:10163000FF91EF919F918F910F900FBE0F901F9090
:10164000189590935401809353010895E0915301AC
:10165000F0915401309721F00190F081E02D099430
:1016600080E00895E0915301F0915401309799F092
:1016700020911301222359F02091480227FF07C02F
:10168000DC012C9111962C93119725E02C9302806C
:10169000F381E02D09940895E0915301F0915401F4
:1016A000309739F022E0DC012C930480F581E02DA5
:1016B000099408952091510130915201281739075A
:1016C00071F09093520180935101E0915301F09198
:1016D0005401309721F00680F781E02D0994089598
:1016E00020914F01309150012817390771F09093E4
:1016F000500180934F01E0915301F09154013097D4
:1017000021F00084F185E02D0994089585B7806863
:1017100085BF85B7806885BF089508950C948D0BAB
:101720000C948E0B0C948D0B0E94860B0E94D0099A
:101730000C94900B0E940C190E9454080E9482196C
:101740000E94151EE8E4F2E08081806880830C949A
:10175000920BBF92CF92DF92EF92FF920F931F9363
:10176000CF93DF93CDB7DEB72A970FB6F894DEBFDD
:101770000FBECDBF0E9444090E94B109811111C062
:101780008FEF89838A831B820E9415198160782FCD
:101790009D838C8349815A816B818D810E94520C7B
:1017A00054C086E5C82E81E0D82E00E010E0B02EAF
:1017B000802F0E944D08E82EF60121916F01F82E2E
:1017C000F22631F40F5F1F4F0A30110581F7D8CF91
:1017D0008091EE0181FD0E94530880E090E02F2D62
:1017E00030E0482FB901082E02C0759567950A941C
:1017F000E2F760FF25C08E83BF8281E090E06C013C
:1018000002C0CC0CDD1C4A95E2F72E2D30E02C21D5
:101810003D21232B09F480E088870E9415198160FF
:10182000782F9A8789874E815F8168858A850E9493
:10183000520CF801EA5AFE4F80818C25808305C046
:1018400001968630910569F6BDCF0E94151B0E9456
:10185000260B909155018917A9F00E94260B8093C1
:1018600055012A960FB6F894DEBF0FBECDBFDF91AB
:10187000CF911F910F91FF90EF90DF90CF90BF908D
:101880000C94F0032A960FB6F894DEBF0FBECDBFBE
:10189000DF91CF911F910F91FF90EF90DF90CF904C
:1018A000BF900895CF93DF93CDB7DEB72B970FB6D8
:1018B000F894DEBF0FBECDBF4F83588769877A8704
:1018C0008B87DE01119686E0FD0111928A95E9F77A
:1018D00085E0FE01379601900D928A95E1F74981E6
:1018E0005A816B817C818D819E810E9408142B9688
:1018F0000FB6F894DEBF0FBECDBFDF91CF91089534
:10190000FC01808191810E94DE160895CF93882387
:1019100009F424C1C82F8238C1F40E94260B81FD2E
:101920001DC169E380910101909102010E94B918E3
:101930000E946B172FEF81EE94E021508040904081
:10194000E1F700C0000069E319C0833801F50E9487
:10195000260B80FD03C163E5809101019091020196
:101960000E94B9180E946B172FEF81EE94E021506E
:1019700080409040E1F700C0000063E580910101E4
:10198000909102010E94C418CF910C946B17843877
:10199000C1F40E94260B82FDE1C067E48091010141
:1019A000909102010E94B9180E946B172FEF81EEEF
:1019B00094E0215080409040E1F700C0000067E4CF
:1019C000DDCF8CEF8C0F813A68F48C2F0E94201DA4
:1019D0008111C4C06C2F80910101909102010E947D
:1019E000B918D2CF80E28C0F883048F4C77081E0FC
:1019F00001C0880FCA95EAF70E942017C5CF8BE572
:101A00008C0F833078F4C53A29F0C63A31F083E878
:101A100090E005C081E890E002C082E890E0CF91BC
:101A20000C945A0B88E58C0F873108F08FC0C83AA8
:101A300009F445C0C93A09F445C0CA3A09F445C099
:101A4000CB3A09F445C0CC3A09F445C0CB3B09F484
:101A500045C0CC3B09F445C0CD3A09F445C0C03B74
:101A600009F445C0CE3A09F445C0CF3A09F445C05F
:101A7000C13B09F445C0C23B09F445C0C33B09F46E
:101A800045C0C43B09F445C0C53B09F445C0C63B4D
:101A900009F445C0C73B09F445C0C83B09F445C03B
:101AA000C93B09F445C0CD3B09F445C0CE3B09F420
:101AB00045C0CA3B09F445C080E090E044C082EED6
:101AC00090E041C089EE90E03EC08AEE90E03BC0DD
:101AD00085EB90E038C086EB90E035C083EB90E07A
:101AE00032C084EB90E02FC087EB90E02CC08CECF0
:101AF00090E029C08DEC90E026C083E891E023C0FF
:101B00008AE891E020C082E991E01DC084E991E07B
:101B10001AC081E292E017C083E292E014C084E22E
:101B200092E011C085E292E00EC086E292E00BC026
:101B300087E292E008C08FE690E005C080E790E081
:101B400002C08AE292E0CF910C94700BC03F30F05B
:101B50008C2F0E941D1ACF910C940A1BCF910895CF
:101B6000882309F464C0823879F40E94260B81FF2F
:101B70005EC069E380910101909102010E94B91851
:101B80000E946B1769E310C08338B1F40E94260BE2
:101B900080FF4DC063E580910101909102010E9498
:101BA000B9180E946B1763E58091010190910201C1
:101BB0000E94C4180C946B17843879F40E94260B89
:101BC00082FF35C067E480910101909102010E947B
:101BD000B9180E946B1767E4E7CF9CEF980F913A12
:101BE00010F4682FE1CF90E2980F983050F487708E
:101BF00091E001C0990F8A95EAF7892F0E94261774
:101C0000D9CF9BE5980F933020F480E090E00C94BE
:101C10005A0B98E5980F973120F480E090E00C94EF
:101C2000700B803F20F00E94851A0C940A1B0895C7
:101C3000CF93C82F0E94860C8C2FCF910C94B00D9F
:101C4000882321F00E9420170C946B170895882395
:101C500021F00E9426170C946B1708958F929F9283
:101C6000AF92BF92DF92EF92FF920F931F93CF93A9
:101C7000DF937C01D62FC72FFC01058102950F70E1
:101C8000128111110E943D170E941617882379F0C6
:101C9000112369F080E28D0F883048F082E00E94C5
:101CA000B5170E94161791E0D82ED92601C0D12C65
:101CB000BC2EB2948FE0B8228B2D90E0FC01E85945
:101CC000FF4F0C9464268C2F807FCF70882311F0F7
:101CD000C295C07F112399F0CC2309F4C4C180E2DE
:101CE0008D0F883010F0D11104C08C2F0E94201766
:101CF00003C08C2F0E9430170E946B17B4C18D2F28
:101D00000E94B00DCC2309F4F4C180E28D0F88301D
:101D100010F0D11104C08C2F0E94261703C08C2F05
:101D20000E9436170E946B17E4C18C2F807FCF7002
:101D3000803211F0C295C07FDD2319F0D130C9F097
:101D400022C0112371F0002341F0013031F40E94D0
:101D500050178C2B0E945817CCC10E9450178C2B07
:101D60003AC1002319F0013009F4C3C10E94611780
:101D700018C0112321F0063008F0BBC10EC0053099
:101D800008F0B7C10EC0112351F0002331F0F70164
:101D9000858180FF68C18F7085838C2F1CC10111E4
:101DA00073C18C2F1EC18C2F86958695837019F078
:101DB000813061F09EC1112321F08D2F9C2F9370F3
:101DC00002C080E090E00E945A0BA0C1112321F0D4
:101DD0008D2F9C2F937002C080E090E00E94700BCA
:101DE00095C11123F9F0D53F51F0D63F71F0D43FA2
:101DF000A9F4809142029091430281600BC08091CE
:101E0000420290914302826005C08091420290910B
:101E10004302846090934302809342028D2F0E947C
:101E20001D1A1EC0D53F51F0D63F71F0D43FA9F422
:101E300080914202909143028E7F0BC080914202BA
:101E4000909143028D7F05C08091420290914302A0
:101E50008B7F90934302809342028D2F0E94851ABC
:101E60000E940A1B53C18C2F837009F04CC01111C2
:101E700049C12D2F229526952770220F220F6D2FF5
:101E80006F70862F90E0A0E0B0E04C015D01022E63
:101E900004C0880C991CAA1CBB1C0A94D2F7D4FF5E
:101EA00012C08FE090E0A0E0B0E004C0880F991F5E
:101EB000AA1FBB1F2A95D2F7BC01CD016095709572
:101EC0008095909503C060E070E0CB01C695C69503
:101ED000C370C23051F080F4682979298A299B297E
:101EE000C13071F00E9459150DC1682979298A29DC
:101EF0009B290E946B1506C10E945915C501B401AA
:101F00000E944715FFC0112319F08C2F817001C06A
:101F10008695882309F4F6C02D2F229526952770E3
:101F2000220F220F6D2F6F70862F90E0A0E0B0E09F
:101F30004C015D01022E04C0880C991CAA1CBB1C1C
:101F40000A94D2F7D4FF12C08FE090E0A0E0B0E096
:101F500004C0880F991FAA1FBB1F2A95D2F7BC0186
:101F6000CD01609570958095909503C060E070E01C
:101F7000CB01C695C695C370C23051F080F4682974
:101F800079298A299B29C13071F00E941E16BAC096
:101F9000682979298A299B290E943016B3C00E949A
:101FA0001E16C501B4010E940C16ACC08D2F90E026
:101FB000FC01E05EF109E531F10508F050C0E85898
:101FC000FF4F0C946426DF708C2F8F71112331F03A
:101FD0000E94A5158D2F0E94200E8BC00E94C61551
:101FE0008D2F0E94270E85C0112341F0053008F087
:101FF00080C08C2F8F710E94EB157BC0063008F0DB
:1020000078C0F7CF112339F08C2F8F710E94A5155E
:1020100070C01123C9F38C2F8F710E94C61569C03F
:10202000112329F08C2F8F710E94901562C00E949D
:102030008B155FC0112349F0CF718C2F0E94A5151D
:1020400063E08C2F0E94A01754C081E00E94B51756
:10205000023008F44EC082E00E94B5174AC0112336
:1020600031F0002389F28D2F0E94860C42C000239C
:1020700091F2D93349F4FFEF27EE83E0F15020408D
:102080008040E1F700C000008D2F0E94B00D31C0EC
:102090004C2F4F706D2FC7010E9485050E94B6140A
:1020A00035C0111133C0CF70C23091F038F4CC2359
:1020B00061F0C130F1F40E944F1E28C0C43071F0AD
:1020C00050F0C530B1F480E00AC00E94321E1EC03C
:1020D0000E948E1E1BC00E94951E18C085E00E94A3
:1020E000B81E14C04C2F4F706D2FC7010E94880579
:1020F0000DC098E0B91631F0B91640F086EF8B0D9F
:10210000823020F40E94260B0E94F003DD20E1F0D3
:102110000E94121780FD18C0F70112820E940C174E
:102120000E94A515C7010E94B0100E940C17DF91F4
:10213000CF911F910F91FF90EF90DF90BF90AF90E4
:102140009F908F900C94C615DF91CF911F910F91A6
:10215000FF90EF90DF90BF90AF909F908F90089589
:102160000F931F93CF93DF93EC01988189812B818B
:102170003C81232B31F08F3F31F481E09F3F19F4F4
:1021800003C081E001C080E080FD13C0CE010E9449
:102190000804882371F0688179818A810E94E91698
:1021A0008C010E9442160E943315B801CE010E9494
:1021B0002E0EDF91CF911F910F9108950E943D1730
:1021C0000E944D170E946B170E94AC1B0E940A1BB5
:1021D00080E090E00E945A0B80E090E00C94700B3D
:1021E00080910101909102010E94CF180C94DE10A1
:1021F0000E942D170C94F010E92FE295EF704E2FEE
:1022000050E0FA013297EE30F105B0F4E357FF4F9A
:102210000C946426803F91F018F4803E68F40EC060
:10222000843F51F40BC0803E48F0813F29F406C042
:1022300093FB882780F9089580E0089581E0089550
:102240000E94DE160E94FC100895CF93DF9300D009
:1022500000D01F92CDB7DEB70F900F900F900F9068
:102260000F90DF91CF910895CF93DF9300D000D0EE
:1022700000D0CDB7DEB726960FB6F894DEBF0FBEFE
:10228000CDBFDF91CF9108951F93CF93DF93C0917E
:10229000610116E080916201C81799F0D0E01C9F9F
:1022A000F0011D9FF00D1124ED59FE4F4081518129
:1022B00062817381848195810E9434112196C77057
:1022C000E9CFDF91CF911F910895409193015091F3
:1022D0009401609195017091960180919701909180
:1022E00098010C943411209161019091620156E0A3
:1022F0002917A9F030E0529FF001539FF00D1124EF
:10230000ED59FE4F7181761306C07081781303C0BA
:102310007281741306C02F5F3F4F2770E9CF80E0B2
:10232000089581E00895CF938091980182958F70F0
:1023300009F05FC080919501882309F45AC080910B
:102340006101B091620170919301A091940140915B
:1023500096015091970191E07F3F09F090E0692F3D
:10236000C6E08B1709F445C04115510521F0AF3F78
:1023700021F020E003C021E001C0262F90E020FDE5
:1023800035C0C89FF001C99FF00D1124ED59FE4FD3
:1023900021812A132BC02081271328C022812111DB
:1023A00025C0238134812417350710F421503109C9
:1023B000241B350B283E3340C8F4209198012F7020
:1023C00020612093980126E0289FF001299FF00DBD
:1023D0001124E859FE4F80818F708061808383E9EA
:1023E00091E00E94B010CF910C9444110196877037
:1023F000B8CFCF9108959F92AF92BF92CF92DF92C4
:10240000EF92FF920F931F93CF93DF93CDB7DEB779
:1024100061970FB6F894DEBF0FBECDBF7C0185E09B
:10242000F701DE011D9601900D928A95E1F7D70123
:10243000DC9011960C9111971296CC9030919301EB
:10244000409194018091960190919701009731F00D
:102450004F3F31F421E03F3F19F403C021E001C0B8
:1024600020E020FDA5C1F701A380B48090909501E4
:10247000992009F42EC120919801A816B90648F0B8
:10248000B501681B790BCB0111E0883E9340D8F071
:1024900008C0809590958A0D9B1D11E0883E934061
:1024A00090F010E0207F09F0DAC07A2DB98AA88A6E
:1024B0004D2D502F6C2D89890E94251183E991E0C3
:1024C0000E94B0106DC1822F807F09F090C004136C
:1024D00014C0D31212C01C2DC1100FC02F70206168
:1024E000209398010E94651183E991E00E94B01049
:1024F00080919801F701858378C1A114B10439F066
:102500000F3F39F481E0FFEFDF1203C003C081E029
:1025100001C080E080FD03C081E08C2502C080E026
:1025200090E080FF15C04C2D602F8D2D0E947311FF
:10253000882371F083E991E00E94B010E3E9F1E0B3
:1025400086E0DF011D928A95E9F70E9465114DC072
:10255000AB2839F00F3F39F481E0BFEFDB1203C045
:1025600003C081E001C080E080FD03C081E08C25D4
:1025700002C080E090E0E82FE170BE2E80FF2CC00A
:102580004C2D602F8D2D0E947311182F811124C0A6
:10259000DD860E878D859E850E94DE16292F229569
:1025A0002F70223018F0243090F405C09F7059F03D
:1025B000811109C01AC19F7031F0D70115969C9105
:1025C000907F09F412C1805E883008F40EC1C70103
:1025D0000E94B0101B2D09C11C2DCC2009F405C18F
:1025E0008091980181608093980110E0FEC00413EF
:1025F00009C0D31207C0C11005C080919801F7012E
:102600008583A8C0DD860E878D859E850E9420115A
:10261000882379F1CC2069F120919801822F82954D
:102620008F7090E0029774F08091930190919401E3
:1026300098878F831986BB86AA862C87CE0107963A
:102640000E94B01086E0F701A3E9B1E001900D927D
:102650008A95E1F70E9493110E9465110DC004173D
:1026600069F0DD860E878D859E850E94201181117F
:1026700019C0C7010E94B01011E0B7C0D312F1CF4A
:10268000C110EFCF80919801F7018583C7010E94A7
:10269000B01086E0E3E9F1E0DF011D928A95E9F7E9
:1026A000192DA3C0CC2029F320919801822F829567
:1026B0008F7090E0029734F2809193019091940191
:1026C0009A8389831B82BD82AC822E83CE010196C0
:1026D000B7CFA816B90640F0F501E81BF90BCF01FA
:1026E000883E934098F007C0809590958A0D9B1D79
:1026F000883E934058F010E07A2DB98AA88A4D2D73
:10270000502F6C2D89890E9425114AC01C2DCC2088
:1027100009F4AFCF041333C0D31231C02091980114
:1027200020FD24C0822F82958F70482F50E04115E4
:102730005105E1F0D70115962C9315974F305105AF
:1027400049F08F5F982F9295907F822F8F70892B01
:1027500015968C93C7010E94B01086E0F701A3E99B
:10276000B1E001900D928A95E1F73DC086E0F70156
:10277000A3E9B1E001900D928A95E1F736C0DD86BC
:102780000E878D859E850E94201181115BCF8091DF
:102790009801816080939801C7010E94B01025C004
:1027A000E3E9F1E086E0DF011D928A95E9F71BC0BD
:1027B000CC2009F45ECFDD860E878D859E850E9434
:1027C0002011182F882309F454CF86E0F701A3E9DC
:1027D000B1E001900D928A95E1F783E991E00E94C2
:1027E000800C0E9493110E946511812F61960FB693
:1027F000F894DEBF0FBECDBFDF91CF911F910F9137
:10280000FF90EF90DF90CF90BF90AF909F90089592
:102810001F93CF93DF93CDB7DEB72C970FB6F89405
:10282000DEBF0FBECDBF4F83588769877A878B87FE
:102830009C87CE0107960E94FB118823D1F09F81CF
:1028400088852A853B85232B31F08F3F31F481E049
:102850009F3F19F403C081E001C080E080FD47C0C4
:102860004F81588569857A858B859C850E943411B6
:102870003EC086E0FE013796DE01119601900D9272
:102880008A95E1F7FF81E8856A857B856115710589
:1028900031F0EF3F31F481E0FF3F19F403C081E0F4
:1028A00001C080E080FD23C02091620130E0C901B9
:1028B0000196877099274091610150E08417950730
:1028C000F1F1F983EA837D836C8396E0929FD001D6
:1028D000939FB00D1124AD59BE4FFE01319601906A
:1028E0000D929A95E1F7809362010E94441116E0DF
:1028F0008091610190916201891771F1189FC00167
:1029000011248D599E4F0E94FB11882329F1E091DB
:1029100061011E9FF0011124ED59FE4F408151814C
:1029200062817381848195810E943411809161015B
:1029300090E001968770992780936101D9CF0E941A
:10294000F8101092620110926101E3E9F1E086E073
:10295000DF011D928A95E9F72C960FB6F894DEBF39
:102960000FBECDBFDF91CF911F910895EF92FF92DF
:102970000F931F93CF93DF938C01892B09F46CC0C5
:10298000F12CEE24E394E8012196F8018491843738
:1029900040F4843008F051C0813081F0823019F168
:1029A0005BC0853709F444C0A8F19CE7980F9037C5
:1029B00008F052C08F770E94B00D41C00E5F1F4FCC
:1029C000FE01849190E2980F983050F48770FE2DAC
:1029D00001C0FF0F8A95EAF78F2F0E94401714C09D
:1029E0000E94860C2DC00E5F1F4FFE01849190E265
:1029F000980F983060F48770FE2D01C0FF0F8A9504
:102A0000EAF78F2F0E9446170E946B1719C00E9489
:102A1000B00D16C00E5F1F4FFE01C491CC2381F094
:102A20008FE99FE00197F1F700C00000C150F6CF99
:102A30000E5F1F4FFE01F49003C00E94860C8E01B2
:102A40008F2D882309F49FCFEFE9FFE03197F1F74D
:102A500000C000008150F5CFDF91CF911F910F9101
:102A6000FF90EF900895089508950C9434150C94F8
:102A700035150E9437156093C5017093C601809388
:102A8000C7019093C8010C94DE100C9439150F9374
:102A90001F930091C5011091C6012091C70130918B
:102AA000C801602B712B822B932B1F910F910C94DB
:102AB00039150F931F930091C5011091C601209104
:102AC000C7013091C80160237123822393231F9192
:102AD0000F910C9439150F931F930091C50110911C
:102AE000C6012091C7013091C80160277127822754
:102AF00093271F910F910C9439150C9434150E9453
:102B00007D156093C1017093C2018093C3019093BE
:102B1000C4010C94DE1060E070E0CB010C947F15D2
:102B20000F931F9341E050E060E070E08A019B0149
:102B300004C0000F111F221F331F8A95D2F7C9014D
:102B4000B8011F910F910C947F150F931F9341E0D3
:102B500050E060E070E004C0440F551F661F771F0F
:102B60008A95D2F78091C1019091C201A091C301D1
:102B7000B091C4018A019B01082B192B2A2B3B2BF6
:102B8000C901B8011F910F910C947F150F931F93EA
:102B900041E050E060E070E004C0440F551F661F44
:102BA000771F8A95D2F740955095609570958091E2
:102BB000C1019091C201A091C301B091C4018A01E9
:102BC0009B01082319232A233B23C901B8011F9124
:102BD0000F910C947F150F931F9341E050E060E03C
:102BE00070E004C0440F551F661F771F8A95D2F707
:102BF0008091C1019091C201A091C301B091C40123
:102C00008A019B01082719272A273B27C901B801F8
:102C10001F910F910C947F150F931F930091C10189
:102C20001091C2012091C3013091C401602B712B1E
:102C3000822B932B1F910F910C947F150F931F9351
:102C40000091C1011091C2012091C3013091C401D2
:102C500060237123822393231F910F910C947F157E
:102C60000F931F930091C1011091C2012091C301E4
:102C70003091C40160277127822793271F910F91FC
:102C80000C947F150895292F220F920F990F890F09
:102C9000E82FE695E695E695877051E001C0550F5F
:102CA0008A95EAF785E0E89FF0011124E756FE4F88
:102CB00020E030E070E04081CB01022E02C096950A
:102CC00087950A94E2F7817081958427852384276C
:102CD00081932F5F3F4F2530310569F70895292FE4
:102CE000220F920F990F890F682F6695669566954A
:102CF000982F977085E0689FB001112440E050E064
:102D000080E0FB01E40FF51FE756FE4F208130E025
:102D1000092E02C0369527950A94E2F721703327D1
:102D2000042E01C0220F0A94EAF7822B4F5F5F4FF7
:102D30004530510531F70895BF92CF92DF92EF925F
:102D4000FF920F931F93CF93DF938C01C090C1012B
:102D5000D090C201E090C301F090C4018091C50100
:102D60009091C601A091C701B091C801C82AD92A83
:102D7000EA2AFB2ACFE1D0E0D701C6010C2E04C01D
:102D8000B695A795979587950A94D2F780FD04C0CC
:102D9000219790F7B12C07C0BC2EB8018C2F0E9450
:102DA000A4050197A9F38B2DDF91CF911F910F916E
:102DB000FF90EF90DF90CF90BF900895CF93DF9377
:102DC000EC010E949C16BE010E94A405DF91CF91E8
:102DD00008951F93CF93DF93EB01909160019923A6
:102DE00021F0CB010E94DE1613C0882349F0CB01ED
:102DF0000E949C16182F682FCE010E94431604C013
:102E0000CB010E946F16182FBE01812F0E94A405CE
:102E1000DF91CF911F9108958091C9018595859586
:102E2000859508958091C901877008959091C90191
:102E3000977081E009F480E008958091ED01089594
:102E40009091ED01892B8093ED01089580959091EB
:102E5000ED0189238093ED0108951092ED0108950D
:102E60009091EC01892B8093EC01089580959091CD
:102E7000EC0189238093EC0108951092EC010895F0
:102E80009091EB01892B8093EB01089580959091AF
:102E9000EB0189238093EB0108951092EB010895D3
:102EA0008091CA01089508950C9453170C945417F7
:102EB0009091CA01981721F08093CA010C9456177B
:102EC00008958091CA01882329F01092CA0180E0F8
:102ED0000C9456170895E0910101F0910201809140
:102EE000ED018083E0910101F091020190818091D8
:102EF000EC01892B8083E0910101F0910201908126
:102F00008091EB01892B80838091CA01882381F015
:102F1000E0910101F09102019081892B80838091E1
:102F20000101909102010E94531881110E946117C2
:102F300080910101909102010C94320B0C94531773
:102F400098E0899F90011124262B2093C9010E94AB
:102F5000A5158091C9018595859585950C949E1739
:102F60001092C90180E00C949E172091C9018095B0
:102F700082238093C901982F977079F430E0482F0D
:102F8000082E000C550B2417350739F085958595CB
:102F900085950E94C6150C94B017089580E090E0C6
:102FA0000E948C2621E08D3E9E4F09F020E0822F6A
:102FB000089582E090E00C94842683E090E00C94E5
:102FC000842684E090E00C948426682F84E090E0CE
:102FD0000C94922686E090E00C948426682F86E07C
:102FE00090E00C949226AB01BC018FE090E00C9431
:102FF000A426AB01BC0183E190E00C94A42660E020
:1030000070E0CB010C94F91760E070E0CB010E94F6
:10301000F3170C94FF176DEE7EEF80E090E00E94B6
:10302000B02660E082E090E00E94922660E083E0BB
:1030300090E00E9492261092C5011092C601109253
:10304000C7011092C80160E084E090E00E949226DF
:1030500060E085E090E00E94922660E086E090E0EB
:103060000E9492266FEF87E090E00E94922640E057
:1030700050E0BA0188E090E00E94A42660E08DE074
:1030800090E00E94922640E050E0BA0188E190E092
:103090000E94A42660E087E190E00E9492260C94B2
:1030A00004180C940B18FC013296809113018823AC
:1030B00031F08091480287FF02C09EE101C096E096
:1030C00080E0915028F021912223D9F38F5FF9CF2E
:1030D00008959C01FC0132969FEF80E041914617D4
:1030E00089F09F3F19F4411101C0982F8F5F8630FE
:1030F000A9F79F3F39F0F901E90FF11D97FDFA9506
:103100006283089508959C012A5F3F4FFC0142812C
:10311000461301C01282019682179307B9F70895EA
:10312000262F2695269526952E3168F4FC01E20F70
:10313000F11D677021E030E001C0220F6A95EAF7C7
:103140008281282B22830895262F26952695269561
:103150002E3170F4FC01E20FF11D677021E030E0C8
:1031600001C0220F6A95EAF72095828128232283E5
:10317000089520911301222329F02091480227FD70
:103180000C9490180C94691820911301222329F0B3
:103190002091480227FD0C94A4180C9483182091C8
:1031A0001301FC013296222331F08091480287FFFF
:1031B00002C08EE101C086E0DF011D928A95E9F729
:1031C000089508950C94E1180C94E118CF930E948F
:1031D000E4180E9444090E94E218C0E08C2F0E946B
:1031E0004D08811104C0CF5FCA30C1F701C081E032
:1031F000CF9108950C94E1180C94FA180C94FC18D3
:103200000C94E1180E94F8100E94151E0E94260BD3
:103210000E94F0030C94001982E084BD93E095BDF8
:103220009AEF97BD80936E0008952FB7F894809120
:10323000440290914502A0914602B09147022FBFEF
:103240000895CF92DF92EF92FF920F931F932FB7C3
:10325000F894409144025091450260914602709169
:1032600047022FBF6A017B01EE24FF248C0120E07E
:1032700030E0C016D106E206F30610F441505109C1
:103280009A01281B390BC9011F910F91FF90EF90F4
:10329000DF90CF90089578941F920F920FB60F92FF
:1032A00011248F939F93AF93BF9380914402909189
:1032B0004502A0914602B09147020196A11DB11DA1
:1032C0008093440290934502A0934602B093470234
:1032D000BF91AF919F918F910F900FBE0F901F9054
:1032E000189587E797E790930108809300089AE084
:1032F00088E10FB6F894A895809360000FBE909374
:103300006000FFCF0E94CE17811102C00E945118A9
:103310000E94D9178093EE010E94E11790E09093EC
:103320004902809348020E94DD17682F70E080E018
:1033300090E00C9445158091F10180FF0BC06091E5
:10334000060185E0689FB001112475956795759514
:1033500067952BC081FF09C06091060185E0689FD9
:10336000B00111247595679520C082FF07C0609158
:10337000060185E0689FB001112417C09091F20109
:103380009923D1F060910501961788F720910601E5
:1033900085E0289F90011124929FA001939F500DDA
:1033A000112470E0CA010E942E266038710540F495
:1033B0006115710519F406C065E070E0862F089567
:1033C0008FE7089581E008958091F10180FF08C0A2
:1033D0006091040170E0759567957595679521C0BA
:1033E00081FF06C06091040170E07595679519C072
:1033F00082FF04C06091040170E010C09091F2015E
:10340000992399F0609103019617A0F78091040128
:10341000899FC001112470E00E942E26603871053A
:1034200040F46115710519F406C061E070E0862F63
:1034300008958FE7089581E00895803F21F40E9468
:103440009B19819504C0813F29F40E949B198093A8
:10345000F6010895823F21F40E949B19819504C0D2
:10346000833F29F40E949B198093F5010895893FB9
:1034700019F40E94E41905C08A3F31F40E94E4194E
:1034800081958093F70108958B3F21F40E94E41900
:10349000819504C08C3F29F40E94E4198093F801BF
:1034A0000895843F21F48091F401816017C0853F25
:1034B00021F48091F401826011C0863F21F4809153
:1034C000F40184600BC0873F21F48091F40188608F
:1034D00005C0883F31F48091F40180618093F4014C
:1034E00008958D3F21F48091F10181600BC08E3FE2
:1034F00021F48091F101826005C08F3F29F4809111
:10350000F10184608093F1010895803F39F4809146
:10351000F60187FF6CC01092F60169C0813F29F463
:103520008091F6011816BCF362C09091F501823FBC
:1035300029F497FF5CC01092F50159C0833F19F43C
:103540001916CCF354C0893F41F48091F701181645
:103550000CF04DC01092F7014AC08A3F29F48091C7
:10356000F70187FF44C0F6CF8B3F39F48091F80113
:1035700087FF3DC01092F8013AC08C3F29F480913A
:10358000F8011816BCF333C0843F21F48091F40194
:103590008E7F17C0853F21F48091F4018D7F11C08B
:1035A000863F21F48091F4018B7F0BC0873F21F48B
:1035B0008091F401877F05C0883F31F48091F40148
:1035C0008F7E8093F40113C08D3F21F48091F1012F
:1035D0008E7F0BC08E3F21F48091F1018D7F05C05D
:1035E0008F3F29F48091F1018B7F8093F1018091CD
:1035F000F50181110EC08091F60181110AC0809100
:10360000F701811106C08091F801811102C010926A
:10361000F201089583EF91E00E944C0B0E9415196E
:103620009093F0018093EF0108951F93CF93DF9360
:103630008091EF019091F0010E942119AC019091CD
:10364000F201992321F02091070130E006C020917A
:1036500008018AE0289F900111244217530708F4BB
:1036600077C08091F501C091F601D091F7011091DA
:10367000F801811107C0C11167C0D11165C01111D6
:1036800063C066C09F3F19F09F5F9093F2011816C8
:1036900024F40E949B198093F5018091F50187FF26
:1036A00005C00E949B1981958093F5011C1624F496
:1036B0000E949B198093F6018091F60187FF05C057
:1036C0000E949B1981958093F6013091F501332377
:1036D000C1F02091F6012223A1F045EB3403C00193
:1036E0001124892F911101C081E08093F50135EB00
:1036F0002303C0011124892F911101C081E080931F
:10370000F6011D1624F40E94E4198093F7018091BC
:10371000F70187FF05C00E94E41981958093F701A6
:10372000111624F40E94E4198093F8018091F801A5
:1037300087FF05C00E94E41981958093F801DF910D
:10374000CF911F910C940A1B9F3F09F09DCFAECFE4
:10375000DF91CF911F910895E3EFF1E086E0DF0163
:103760001D928A95E9F71092F2011092F1010895E5
:10377000833081F128F4813059F08230D1F00895FE
:10378000853009F449C0B8F1863009F456C008956F
:1037900080910801262F30E0280F311D2F3F310581
:1037A00024F4680F6093080108958FEF8093080157
:1037B000089580910701262F30E0280F311D2F3FFB
:1037C000310524F4680F6093070108958FEF80930B
:1037D0000701089580910601262F30E0280F311D42
:1037E0002F3F310524F4680F6093060108958FEF91
:1037F00080930601089580910501262F30E0280F5F
:10380000311D2F3F310524F4680F609305010895A1
:103810008FEF80930501089580910401262F30E0F9
:10382000280F311D2F3F310524F4680F60930401E8
:1038300008958FEF80930401089580910301262F4E
:1038400030E0280F311D2F3F310524F4680F6093BD
:10385000030108958FEF809303010895833011F1E0
:1038600028F4813049F0823091F00895853081F15B
:1038700020F18630C1F1089580910801681720F485
:10388000861B809308010895109208010895809185
:103890000701681720F4861B809307010895109292
:1038A0000701089580910601681720F4861B809314
:1038B0000601089510920601089580910501681788
:1038C00020F4861B80930501089510920501089548
:1038D00080910401681720F4861B809304010895E9
:1038E00010920401089580910301681720F4861B4B
:1038F0008093030108951092030108950F931F937D
:1039000041E050E060E070E08A019B0104C0000FDC
:10391000111F221F331F8A95D2F7C901B8010E94D7
:1039200045151F910F910C94F810482F50E0FA01A3
:103930003597EF33F10508F072C0E556FF4F0C9450
:1039400064260E94CF1D0E94260B0E94F00365C0D2
:103950000E94511862C08091EE01817F8E7F80931A
:10396000EE0181E08093FA0108950E94F8102FEF94
:1039700083ED90E3215080409040E1F700C00000CB
:103980000E9471194AC08091EE01982F9095917014
:1039900090FB80F98093EE0191113FC0897F877F72
:1039A00010C08091EE0181FB222720F991E092273F
:1039B00090FB81F98093EE01992379F18091EE01DA
:1039C00081608093EE0129C08091EE0182FB222765
:1039D00020F991E0922790FB82F9ECCF8091EE01E3
:1039E00083FB222720F991E0922790FB83F9E2CF15
:1039F0000E94F8108091480287FB222720F991E06D
:103A0000922790FB87F98093480207C0895303C02F
:103A10008D5101C080E00E947E1C81E0089580E00D
:103A2000089580E008950C94111D8E518A3030F471
:103A3000E82FF0E0EC5DFE4F8081089580E008956E
:103A4000CF93C82F8091FA01813051F018F0823065
:103A500099F17DC00E941D17823209F07AC004C01E
:103A60000E941D17823261F48C2F0E94131D811158
:103A700004C08C2F0E94951C1DC081E090E01AC0EC
:103A80008C2F0E94111D811114C0C43179F048F4AB
:103A9000CB3079F0C03109F060C082E08093FA0148
:103AA00008C0C93219F0C83321F057C01092FA018A
:103AB00054C081E0817053C0C93289F118F5C43116
:103AC00071F1B0F4C73009F046C08EE1809308016F
:103AD00082E3809307018AE08093060184E180936A
:103AE000050188E08093040188E28093030133C0DC
:103AF00082EE8C0F863078F58C2F0E94151D8093F6
:103B0000F90129C0CE34E9F020F4CB3421F56AE084
:103B100013C0C13579F0C235F1F461E00DC0809178
:103B2000F901882319F01092F90115C081E0809302
:103B3000FA0115C061E006C08091F9010E94B81B2E
:103B40000AC06AE08091F9010E942E1C04C0109204
:103B5000FA0180E004C081E002C080E0ABCFCF91E9
:103B60000895E1E8F0E08081886080838081816051
:103B700080838FB7F89493E09093890090ED9093B1
:103B800088008FBF0895EFE6F0E080818260808337
:103B90000895EFE6F0E080818D7F80830895EFE661
:103BA000F0E0908182E08927808308951F920F9230
:103BB0000FB60F9211242F933F934F935F936F9300
:103BC0007F938F939F93AF93BF93EF93FF938091D6
:103BD000FB019091FC0101969093FC018093FB0105
:103BE000811103C082E00E94F003E091FC01E695A0
:103BF000E695F0E0E854FD4FE4918091FB018E13CF
:103C000003C080E00E94F003FF91EF91BF91AF915C
:103C10009F918F917F916F915F914F913F912F91E4
:103C20000F900FBE0F901F9018950E94CE17811114
:103C300002C00E9451180E94EA1780934A02282F5E
:103C4000269530E02630310524F081708A6080931B
:103C50004A0280914A0280FF02C0869501C080E03E
:103C60000C94790320914A02822F8695482F50E0C8
:103C70004530510544F48F5F982F990F822F817042
:103C8000892B80934A0280914A02816080934A0284
:103C90000E94EE1780914A0286950C9479038091D8
:103CA0004A02982F969591F09158990F8170892B1F
:103CB00080934A028E7F91E009F490E080914A025D
:103CC00090FB80F980934A020E94EE1780914A028D
:103CD00086950C94790380914A0280FD11C0816021
:103CE00080934A02813019F483E080934A028091E4
:103CF0004A020E94EE1780914A0286950C9479033D
:103D0000089580914A0280FF08C08E7F80934A0206
:103D10000E94EE1780E00C947903089580914A0286
:103D200080FD0C94811E0C946B1E90914A02892F89
:103D300086958F5F8F779170863028F4880F892B56
:103D400080934A0202C090934A0280914A028E7F79
:103D500091E009F490E080914A0290FB80F9809311
:103D60004A020E94EE1780914A0286950C947903CC
:103D7000863008F085E0880F90914A029170892B77
:103D800080934A028E7F91E009F490E080914A028C
:103D900090FB80F980934A020E94EE1780914A02BC
:103DA00086950C94790380914A02869508958091B6
:103DB0001D0208950F931F93CF93DF9300D01F929E
:103DC000CDB7DEB78C010E944F21823011F08430D4
:103DD00021F584E089831B830A8382E08093E900D4
:103DE0008FEF9091E800815095FD06C095ED9A9572
:103DF000F1F700008111F5CF8091E80085FF0DC03B
:103E000040E050E063E070E0CE0101960E946C213A
:103E10008091E8008E778093E8000F900F900F90CC
:103E2000DF91CF911F910F910895CF93DF9300D031
:103E30001F92CDB7DEB720914F02243031F523E039
:103E40002983805891099B838A8382E08093E900CB
:103E50008FEF9091E800815095FD06C095ED9A9501
:103E6000F1F700008111F5CF8091E80085FF0DC0CA
:103E700040E050E063E070E0CE0101960E946C21CA
:103E80008091E8008E778093E8000F900F900F905C
:103E9000DF91CF910895CF93DF93EC010E944F21E2
:103EA000823011F08430F9F482E08093E9008FEFE2
:103EB0009091E800815095FD06C095ED9A95F1F737
:103EC00000008111F5CF8091E80085FF0CC040E033
:103ED00050E066E070E0CE010E946C218091E80025
:103EE0008E778093E800DF91CF910895CF93DF9391
:103EF000EC010E944F21823011F08430D9F580917D
:103F00001301882339F08091480287FF03C060E2E3
:103F100082E002C068E081E08093E9008FEF909139
:103F2000E800815095FD06C095ED9A95F1F70000E7
:103F30008111F5CF8091E80085FF1CC080911301AD
:103F4000811105C040E050E068E070E003C070E01F
:103F500040E050E0CE010E946C218091E8008E7715
:103F60008093E80080E2FE01ADEFB1E001900D9298
:103F70008A95E1F7DF91CF91089580914E028111EA
:103F800009C00E94FD220E945A238091E2008460B1
:103F90008093E200089510924E02089508950C94C3
:103FA000C31D0E9402190E94C91D0E94260B0C9479
:103FB000F00342E061EC81E00E94762242E261EC93
:103FC00082E00C94762280915102833009F460C023
:103FD00030F4813071F0823009F499C008958A304C
:103FE00009F485C08B3009F46BC0893009F0A7C093
:103FF00020C080915002813A09F0A1C08091E80070
:10400000877F8093E8008091540290915502892B1C
:1040100021F460E28DEF91E003C060E080E090E089
:1040200070E00E94B7218091E8008B778093E800D0
:10403000089580915002813209F081C0809154022C
:1040400090915502029708F07AC08091E800877F2E
:104050008093E8008091E80082FD05C080914F02C6
:104060008111F8CF6CC02091F3008091F20090E0B4
:10407000922B029729F48091F1008B7F813021F4FB
:104080008091F10080931D028091E8008B7753C0EE
:1040900080915002813A09F052C08091540290916F
:1040A0005502892B09F04BC08091E800877F8093EF
:1040B000E8008091E80080FFFCCF8091130136C0BA
:1040C000809150028132D9F580915402909155022D
:1040D000892BA9F58091E800877F8093E8000E94F2
:1040E000AB2280915202809313010C94F8108091BE
:1040F0005002813221F58091E800877F8093E800AB
:104100000E94AB228091530280931E0208958091F9
:104110005002813AA1F48091E800877F8093E80003
:104120008091E80080FFFCCF80911E028093F10017
:104130008091E8008E778093E8000C94AB2208957C
:1041400084B7877F84BF0FB6F894A89580916000EC
:10415000886180936000109260000FBE80E88093B9
:104160006100109261000E94940B0E94FD220E9447
:104170005A238091E20084608093E20078940E9448
:10418000EF250E949A0B89E091E00E94210B0E948A
:10419000B11D80914F02853069F40E94FE18809114
:1041A0004D028823B1F30E94E618882391F30E9400
:1041B0005621EFCF0E94A90BECCF0C94DF20292FC2
:1041C000332723303105C9F060F42130310581F007
:1041D0002230310509F04AC08BE390E02EE333E052
:1041E00049C02132310511F12232310579F13EC049
:1041F00082E190E029E733E03DC0992781309105C5
:1042000061F040F08230910559F0039779F5E8EFBD
:10421000F2E008C0EAE3F3E005C0EAE2F3E002C03E
:10422000EEEFF2E0849190E09F0124C061157105EA
:1042300041F061307105D1F489E090E029E633E086
:1042400019C089E090E020E533E014C061157105E4
:1042500041F06130710551F480EC90E02BE833E0DF
:1042600009C080E490E02BE434E004C080E090E0FA
:1042700020E030E0FA013183208308950895CF9340
:10428000C82F0E943E21C0931F02CF9108958091B4
:104290004F02843011F081E0089582E0089580910A
:1042A0001F02811102C00C944721089580E189BD4D
:1042B00082E189BD09B400FEFDCF8091D8008F7DD9
:1042C0008093D8008091E00082608093E00080912C
:1042D000E00081FDFCCF0895CF92DF92EF92FF9234
:1042E0000F931F93CF93DF93EC018B017A010E9410
:1042F000CA22811133C0E114F10439F0F701808141
:104300009181081B190BC80FD91FC12CD12C011585
:10431000110519F18091E80085FD16C08091E80033
:104320008E778093E800E114F10449F0F701808171
:104330009181C80ED91ED182C08285E00FC00E9433
:10434000CA22882321F30AC089918093F100015089
:104350001109FFEFCF1ADF0ADACF80E0DF91CF91AA
:104360001F910F91FF90EF90DF90CF9008952091D3
:104370005602309157022617370748F0611571052C
:1043800039F42091E8002E772093E80001C0B901AC
:10439000FC0120E06115710579F180914F028823BD
:1043A000F1F18530F1F18091E80083FD3CC080910E
:1043B000E80082FD2EC08091E80080FFEBCF2091C5
:1043C000F3008091F20090E0922B6115710551F09D
:1043D0008830910538F421912093F10061507109E2
:1043E0000196F3CF21E0089709F020E08091E800E2
:1043F0008E778093E800CECF2111CFCF0AC0809175
:104400004F02882361F0853061F08091E80083FDE0
:104410000AC08091E80082FFF2CF80E0089582E038
:10442000089583E0089581E0089520915602309127
:1044300057022617370748F06115710539F42091A6
:10444000E8002E772093E80001C0B901FC0120E0CC
:104450006115710591F180914F02882309F440C0E4
:10446000853009F43FC08091E80083FD3DC0809114
:10447000E80082FD2FC08091E80080FFE9CF209105
:10448000F3008091F20090E0922B6115710559F0D4
:104490008830910540F424912093F10031966150C9
:1044A00071090196F2CF21E0089709F020E0809190
:1044B000E8008E778093E800CBCF2111CCCF0AC0E3
:1044C00080914F02882361F0853061F08091E8008F
:1044D00083FD0AC08091E80082FFF2CF80E008955A
:1044E00082E0089583E0089581E00895982F973041
:1044F00068F59093E900981739F07091EC002091DD
:10450000ED005091F00003C0242F762F50E021FDE4
:1045100002C09F5FECCF3091EB003E7F3093EB0009
:104520003091ED003D7F3093ED003091EB00316034
:104530003093EB007093EC002093ED005093F0006B
:104540002091EE0027FDE5CF80E008958F708093E5
:10455000E90081E008958091500287FF11C08091A9
:10456000E80082FD05C080914F028111F8CF11C093
:104570008091E8008B770BC080914F02882349F02F
:104580008091E80080FFF8CF8091E8008E778093DB
:10459000E80008952091E4003091E50095E640910F
:1045A000EC00842F817040FF23C08091E80080FDE3
:1045B0001DC080914F02882399F0853099F0809139
:1045C000EB0085FD11C04091E4005091E5002417F7
:1045D000350729F3915011F09A01E1CF84E0089555
:1045E00082E0089583E0089581E0089580E00895D1
:1045F0004091E80042FFDDCF08950E946B230E94A6
:104600007323E0EEF0E0808181608083E8EDF0E0EC
:1046100080818F77808319BCA7EDB0E08C918E7F6D
:104620008C9380818F7E808310924E0208950F9329
:104630001F93CF93DF930E946B230E947323C8EDD7
:10464000D0E088818F77888388818068888388819B
:104650008F7D888319BC10924F0210924B021092EA
:104660004D0210924C0200EE10E0F80180818B7F29
:10467000808388818160888342E060E080E00E94DE
:104680007622E1EEF0E080818E7F8083E2EEF0E042
:10469000808181608083808188608083F80180814F
:1046A0008E7F8083888180618883DF91CF911F9185
:1046B0000F910895E8EDF0E080818F7E8083E7ED33
:1046C000F0E080818160808384E082BF81E080931C
:1046D0004E020C941723E8EDF0E080818E7F8083FA
:1046E0001092E20008951092DA001092E10008950D
:1046F0001F920F920FB60F9211242F933F934F9357
:104700005F936F937F938F939F93AF93BF93EF9339
:10471000FF938091E10082FF0BC08091E20082FF55
:1047200007C08091E1008B7F8093E1000E94EE251D
:104730008091DA0080FF1FC08091D80080FF1BC0ED
:104740008091DA008E7F8093DA008091D90080FF1B
:104750000DC080E189BD82E189BD09B400FEFDCFB5
:1047600081E080934F020E94BD1F05C019BC1092CA
:104770004F020E94CB1F8091E10080FF19C0809101
:10478000E20080FF15C08091E2008E7F8093E200FE
:104790008091E20080618093E2008091D800806285
:1047A0008093D80019BC85E080934F020E94CF1FF0
:1047B0008091E10084FF30C08091E20084FF2CC032
:1047C00080E189BD82E189BD09B400FEFDCF809101
:1047D000D8008F7D8093D8008091E1008F7E8093F8
:1047E000E1008091E2008F7E8093E2008091E20000
:1047F00081608093E20080914B02882311F084E075
:1048000007C08091E30087FD02C081E001C083E022
:1048100080934F020E94D11F8091E10083FF29C045
:104820008091E20083FF25C08091E100877F809323
:10483000E10082E080934F0210924B028091E100F0
:104840008E7F8093E1008091E2008E7F8093E20072
:104850008091E20080618093E20042E060E080E0CD
:104860000E9476228091F00088608093F0000E9480
:10487000CE1FFF91EF91BF91AF919F918F917F914B
:104880006F915F914F913F912F910F900FBE0F90BD
:104890001F9018951F920F920FB60F9211242F930D
:1048A0003F934F935F936F937F938F939F93AF93B8
:1048B000BF93CF93DF93EF93FF93C091E900CF7045
:1048C0008091EC00D82FD17080FDD0E81092E900E3
:1048D0008091F000877F8093F00078940E948E246E
:1048E0001092E9008091F00088608093F000CD2B59
:1048F000CF70C093E900FF91EF91DF91CF91BF910D
:10490000AF919F918F917F916F915F914F913F9167
:104910002F910F900FBE0F901F9018951F93CF935C
:10492000DF93CDB7DEB7AA970FB6F894DEBF0FBE00
:10493000CDBFE0E5F2E08091F100819322E0E8351F
:10494000F207C9F70E94E31F8091E80083FF2EC1A0
:104950008091500290915102492F50E04A30510508
:1049600008F024C1FA01E652FF4F0C946426803807
:1049700021F0823809F01AC108C080914C02909150
:104980004D02992389F082600FC0809154028F708C
:10499000873008F00BC18093E9008091EB0085FB24
:1049A000882780F91092E9009091E800977F909312
:1049B000E8008093F1001092F100D1C0282F2D7FE4
:1049C00009F0F4C0882319F0823061F0EFC08091C3
:1049D0005202813009F0EAC0933009F080E0809300
:1049E0004D022EC08091520281112AC08091540242
:1049F0008F702FEF280F263008F0D8C08093E90081
:104A00002091EB0020FF1CC0933021F48091EB003B
:104A1000806214C09091EB0090619093EB0021E0D4
:104A200030E0A90102C0440F551F8A95E2F7409378
:104A3000EA001092EA008091EB0088608093EB001E
:104A40001092E9008091E800877F8093E8000E943F
:104A5000AB22ACC08111AAC0109152021F77809185
:104A6000E3008078812B8093E3008091E800877FCA
:104A70008093E8000E94AB228091E80080FFFCCF89
:104A80008091E30080688093E300111102C082E00E
:104A900001C083E080934F0289C08058823008F0C3
:104AA00085C080915202909153028C3D53E095074E
:104AB00079F583E08A838AE289834FB7F894DE012F
:104AC000139620E03EE051E2E32FF0E050935700D0
:104AD000E49120FF03C0E295EF703F5FEF708E2FEF
:104AE00090E0EA3010F0C79601C0C0968D939D9378
:104AF0002F5F243149F74FBF8091E800877F809373
:104B0000E8006AE270E0CE0101960E94B72116C06B
:104B10006091540270915502AE014F5F5F4F0E9449
:104B2000DD20BC01892B09F441C09091E800977FFA
:104B30009093E80089819A810E9415228091E80073
:104B40008B778093E80032C0803881F58091E8004F
:104B5000877F8093E80080914B028093F1008091E1
:104B6000E8008E7772CF811121C08091520290911E
:104B7000530299270297D4F48091E800877F8093AD
:104B8000E8008091520280934B020E94AB228091F8
:104B90004B02811106C08091E30087FD02C081E0D5
:104BA00001C084E080934F020E94D91F8091E800E9
:104BB00083FF0AC08091E800877F8093E80080919E
:104BC000EB0080628093EB00AA960FB6F894DEBFEC
:104BD0000FBECDBFDF91CF911F9108950895CF9360
:104BE00080914F028823A1F0C091E900CF7090918D
:104BF000EC00892F817090FD80E8C82B1092E900AD
:104C00008091E80083FD0E948E24CF70C093E9005C
:104C1000CF910895DB018F939F930E947926BF91D6
:104C2000AF91A29F800D911DA39F900DB29F900DFB
:104C300011240895AA1BBB1B51E107C0AA1FBB1F6B
:104C4000A617B70710F0A61BB70B881F991F5A9518
:104C5000A9F780959095BC01CD01089597FB072E8B
:104C600016F4009407D077FD09D00E941A2607FC9D
:104C700005D03EF4909581959F4F0895709561956C
:104C80007F4F0895A1E21A2EAA1BBB1BFD010DC088
:104C9000AA1FBB1FEE1FFF1FA217B307E407F507EC
:104CA00020F0A21BB30BE40BF50B661F771F881FC8
:104CB000991F1A9469F760957095809590959B015E
:104CC000AC01BD01CF010895EE0FFF1F0590F491D7
:104CD000E02D0994A29FB001B39FC001A39F700D66
:104CE000811D1124911DB29F700D811D1124911DF4
:104CF00008950E946A26A59F900DB49F900DA49FD1
:104D0000800D911D11240895F999FECF92BD81BDAA
:104D1000F89A992780B50895A8E1B0E042E050E004
:104D20000C94B826262FF999FECF92BD81BDF89A32
:104D3000019700B4021639F01FBA20BD0FB6F894DF
:104D4000FA9AF99A0FBE08950396272F0E94932688
:104D50000E949226252F0E949326242F0C9493269E
:104D60000196272F0E9493260C949226DC01CB01FA
:104D7000FC01F999FECF06C0F2BDE1BDF89A31966B
:104D800000B40D9241505040B8F70895F894FFCF09
:104D900001CB012808140A321ED71E761F4B1F159F
:104DA0001FDA1E0192F5F6F731339497C6343500B9
:0E4DB0000000000001020304050607080900C8
:00000001FF
